:100000000C9434000C9451000C9451000C94510049
:100010000C9451000C9451000C9451000C9451001C
:100020000C9451000C9451000C9451000C9451000C
:100030000C9451000C946C000C9451000C945100E1
:100040000C9451000C9451000C94B0010C94DE01FE
:100050000C9451000C9451000C9451000C945100DC
:100060000C9451000C94510011241FBECFEFD8E026
:10007000DEBFCDBF11E0A0E0B1E0E8EFF4E002C0E8
:1000800005900D92A235B107D9F721E0A2E5B1E0C4
:1000900001C01D92A739B207E1F70E9453000C94EA
:1000A0007A020C9400000E946D0187E690E00E94A5
:1000B0000802E1E8F0E080818A7F808380818260AD
:1000C0008083EFE6F0E0808181608083789481E036
:1000D00091E00E943602FFCF1F920F920FB60F924F
:1000E00011240F931F932F933F934F935F936F931D
:1000F0007F938F939F93AF93BF93EF93FF93CF9390
:10010000DF93CDB7DEB72A97DEBFCDBF80E390E3A4
:100110009A8389839C838B839E838D8398878F8327
:100120009A87898780910001823079F018F48130B4
:1001300041F0B5C0833009F448C0843009F485C06B
:10014000AEC082E080930001ADC08EEA0E947C01C7
:1001500080E00E949A018EEA0E947C010E94A50123
:10016000082F8EEA0E947C0181E00E949A018EEAAB
:100170000E947C010E94A501182F4AE0BE016F5F1A
:100180007F4F802F90E00E9445024AE0BE016D5FE4
:100190007F4F812F90E00E9445028FE191E00E9405
:1001A0003602CE0101960E9436028AE291E00E9458
:1001B0003602CE0103960E9436028CE191E00E9445
:1001C000360283E0809300016DC08EEA0E947C01BC
:1001D00082E00E949A018EEA0E947C010E94A501A1
:1001E000082F8EEA0E947C0183E00E949A018EEA29
:1001F0000E947C010E94A501182F4AE0BE016B5F9E
:100200007F4F802F90E00E9445024AE0BE01695F67
:100210007F4F812F90E00E9445028CE291E00E9486
:100220003602CE0105960E9436028AE291E00E94D3
:100230003602CE0107960E9436028CE191E00E94C0
:10024000360284E0809300012DC08EEA0E947C017A
:1002500084E00E949A018EEA0E947C010E94A5011E
:100260004AE0BE01675F7F4F90E00E9445028AE34B
:1002700091E00E943602CE0109960E9436028CE17E
:1002800091E00E94360285E491E00E9436028CE102
:1002900091E00E94360281E08093000103C081E07A
:1002A000809300012A960FB6F894DEBF0FBECDBF33
:1002B000DF91CF91FF91EF91BF91AF919F918F917E
:1002C0007F916F915F914F913F912F911F910F916E
:1002D0000F900FBE0F901F90189587B18F7C87B934
:1002E00088B1806388B9E9EBF0E080818C7F8083FE
:1002F00088E98093B800089594EA9093BC00ECEBF1
:10030000F0E090819923ECF78093BB0084E8809320
:10031000BC00ECEBF0E080818823ECF79091B90011
:10032000987F983129F081E0903419F480E00895A5
:1003300080E008958093BB0084E88093BC00ECEBE0
:10034000F0E080818823ECF7089584E88093BC0076
:10035000ECEBF0E080818823ECF78091BB000895FE
:100360001F920F920FB60F9211242F938F939F938A
:10037000EF93FF938091C0002091C6008C71E091B3
:100380005401EF5FEF7190915301E91739F0E09359
:100390005401F0E0E95AFE4F208301C082E09091C1
:1003A0005201892B80935201FF91EF919F918F9180
:1003B0002F910F900FBE0F901F9018951F920F92C4
:1003C0000FB60F9211248F939F93EF93FF93909109
:1003D000560180915501981769F0E0915501EF5F42
:1003E000EF71E0935501F0E0E958FE4F8081809372
:1003F000C60005C0E1ECF0E080818F7D8083FF9135
:10040000EF919F918F910F900FBE0F901F901895B5
:1004100010925601109255011092540110925301FE
:1004200099231CF422E02093C00090789093C5009B
:100430008093C40088E98093C10086E08093C20065
:100440000895209156012F5F2F7190915501291722
:10045000E1F3E22FF0E0E958FE4F8083209356014C
:10046000E1ECF0E08081806280830895CF93DF9398
:10047000EC018881882331F021960E942102899124
:100480008111FBCFDF91CF910895BB274A3031F422
:10049000992322F4BDE2909581959F4F0C945102CF
:1004A000BB27FB015527AA27880F991FAA1FA4174E
:1004B00010F0A41B83955051B9F7A05DAA3308F042
:1004C000A95DA193009779F7B111B1931192CB0176
:1004D0000C946A02DC01FC01672F71917723E1F72C
:1004E000329704C07C916D9370836291AE17BF0701
:0804F000C8F30895F894FFCF52
:1004F800010D0A5363616E204932432D62757320E2
:10050800666F7220646576696365733A0D0A004800
:10051800756D69646974793A20002E0054656D70B0
:10052800657261747572653A2000436865636B7320
:10053800756D3A20002D2D2D2D2D2D2D2D2D2D2D88
:020548002D0084
:00000001FF
