:100000000C9434000C9451000C9451000C94510049
:100010000C9451000C9451000C9451000C9451001C
:100020000C9451000C9451000C9451000C9451000C
:100030000C9451000C946C000C9451000C945100E1
:100040000C9451000C9451000C9413010C94410138
:100050000C9451000C9451000C9451000C945100DC
:100060000C9451000C94510011241FBECFEFD8E026
:10007000DEBFCDBF11E0A0E0B1E0EEEBF3E002C0E7
:1000800005900D92A632B107D9F721E0A6E2B1E0C2
:1000900001C01D92AB36B207E1F70E9453000C94E9
:1000A000DD010C9400000E94E20087E690E00E94CF
:1000B0006B01E1E8F0E080818A7F8083808182604B
:1000C0008083EFE6F0E0808181608083789482E035
:1000D00091E00E949901FFCF1F920F920FB60F92ED
:1000E00011241F932F933F934F935F936F937F93AD
:1000F0008F939F93AF93BF93EF93FF93CF93DF9330
:1001000000D0CDB7DEB780E390E39A8389838091F6
:100110000101823099F0833019F18130D1F580915D
:1001200000018F5F80930001883720F482E0809384
:10013000010132C087E0809300012EC08091000150
:10014000880F0E94F100182F0E940F01111104C0A6
:1001500083E08093010120C081E0809301011CC0F5
:1001600080E291E00E9499018091000140E1BE018E
:100170006F5F7F4F90E00E94A801CE0101960E9420
:1001800099018DE191E00E94990181E08093010144
:1001900003C081E0809301010F900F90DF91CF9118
:1001A000FF91EF91BF91AF919F918F917F916F914F
:1001B0005F914F913F912F911F910F900FBE0F9024
:1001C0001F90189587B18F7C87B988B1806388B9F3
:1001D000E9EBF0E080818C7F808388E98093B80030
:1001E000089594EA9093BC00ECEBF0E090819923A1
:1001F000ECF78093BB0084E88093BC00ECEBF0E06C
:1002000080818823ECF79091B900987F983129F08C
:1002100081E0903419F480E0089580E0089584E945
:100220008093BC0008951F920F920FB60F92112475
:100230002F938F939F93EF93FF938091C000209112
:10024000C6008C71E0912801EF5FEF71909127015A
:10025000E91739F0E0932801F0E0E55DFE4F2083D7
:1002600001C082E090912601892B80932601FF91A5
:10027000EF919F918F912F910F900FBE0F901F9034
:1002800018951F920F920FB60F9211248F939F9380
:10029000EF93FF9390912A0180912901981769F0BB
:1002A000E0912901EF5FEF71E0932901F0E0E55B58
:1002B000FE4F80818093C60005C0E1ECF0E08081B4
:1002C0008F7D8083FF91EF919F918F910F900FBE53
:1002D0000F901F90189510922A01109229011092E8
:1002E00028011092270199231CF422E02093C000DA
:1002F00090789093C5008093C40088E98093C100F2
:1003000086E08093C200089520912A012F5F2F710B
:10031000909129012917E1F3E22FF0E0E55BFE4F10
:10032000808320932A01E1ECF0E080818062808369
:100330000895CF93DF93EC018881882331F02196D3
:100340000E94840189918111FBCFDF91CF910895A3
:10035000BB274A3031F4992322F4BDE29095819570
:100360009F4F0C94B401BB27FB015527AA27880F88
:10037000991FAA1FA41710F0A41B83955051B9F719
:10038000A05DAA3308F0A95DA193009779F7B11198
:10039000B1931192CB010C94CD01DC01FC01672FCC
:1003A00071917723E1F7329704C07C916D9370834C
:0E03B0006291AE17BF07C8F30895F894FFCF0F
:1003BE0007010D0A5363616E204932432D62757336
:1003CE0020666F7220646576696365733A0D0A0064
:0603DE00416464723A0064
:00000001FF
