S00F00006932635F6275732E737265636E
S11300000C9434000C9451000C9451000C94510045
S11300100C9451000C9451000C9451000C94510018
S11300200C9451000C9451000C9451000C94510008
S11300300C9451000C946C000C9451000C945100DD
S11300400C9451000C9451000C942C010C945A0102
S11300500C9451000C9451000C9451000C945100D8
S11300600C9451000C94510011241FBECFEFD8E022
S1130070DEBFCDBF11E0A0E0B1E0E0EFF3E002C0ED
S113008005900D92A032B107D9F721E0A0E2B1E0CA
S113009001C01D92A536B207E1F70E9453000C94EB
S11300A0F6010C9400000E94F00087E690E00E94A4
S11300B08401E1E8F0E080818A7F8083808182602E
S11300C08083EFE6F0E0808181608083789482E031
S11300D091E00E94B201FFCF1F920F920FB60F92D0
S11300E011241F932F933F934F935F936F937F93A9
S11300F08F939F93AF93BF93EF93FF93CF93DF932C
S1130100CDB7DEB72897DEBFCDBF80E390E39A83F7
S113011089831C821B82FE01359684E0DF011D92D7
S11301208A95E9F780910101823099F0833019F1C1
S11301308130C9F5809100018F5F80930001883779
S113014020F482E08093010131C087E080930001B4
S11301502DC080910001880F0E94FF00182F0E947B
S11301602801111104C083E0809301011FC081E0C4
S1130170809301011BC080E00E94FF000E941D01CA
S113018040E1BE016F5F7F4F90E00E94C101CE014C
S113019001960E94B2018DE191E00E94B20181E0DA
S11301A08093010103C081E08093010128960FB67A
S11301B0F894DEBF0FBECDBFDF91CF91FF91EF91D9
S11301C0BF91AF919F918F917F916F915F914F916B
S11301D03F912F911F910F900FBE0F901F90189574
S11301E087B18F7C87B988B1806388B9E9EBF0E087
S11301F080818C7F808388E98093B800089594EA95
S11302009093BC00ECEBF0E090819923ECF78093A1
S1130210BB0084E88093BC00ECEBF0E08081882391
S1130220ECF79091B900987F983129F081E09034EF
S113023019F480E0089580E0089584EC8093BC0074
S1130240ECEBF0E080818823ECF78091BB0008950B
S113025084E98093BC0008951F920F920FB60F9209
S113026011242F938F939F93EF93FF938091C0005A
S11302702091C6008C71E0912201EF5FEF719091A3
S11302802101E91739F0E0932201F0E0EB5DFE4F24
S1130290208301C082E090912001892B809320016A
S11302A0FF91EF919F918F912F910F900FBE0F901F
S11302B01F9018951F920F920FB60F9211248F93CF
S11302C09F93EF93FF9390912401809123019817BA
S11302D069F0E0912301EF5FEF71E0932301F0E017
S11302E0EB5BFE4F80818093C60005C0E1ECF0E03B
S11302F080818F7D8083FF91EF919F918F910F90EB
S11303000FBE0F901F901895109224011092230194
S1130310109222011092210199231CF422E02093CF
S1130320C00090789093C5008093C40088E98093BE
S1130330C10086E08093C2000895209124012F5FBC
S11303402F71909123012917E1F3E22FF0E0EB5B89
S1130350FE4F808320932401E1ECF0E080818062F1
S113036080830895CF93DF93EC018881882331F053
S113037021960E949D0189918111FBCFDF91CF913C
S11303800895BB274A3031F4992322F4BDE29095B5
S113039081959F4F0C94CD01BB27FB015527AA27BC
S11303A0880F991FAA1FA41710F0A41B83955051FE
S11303B0B9F7A05DAA3308F0A95DA193009779F776
S11303C0B111B1931192CB010C94E601DC01FC0153
S11303D0672F71917723E1F7329704C07C916D9375
S11303E070836291AE17BF07C8F30895F894FFCFE6
S11303F007010D0A5363616E204932432D62757300
S113040020666F7220646576696365733A0D0A002D
S9030000FC
