S00B00006C63642E73726563E6
S11300000C9434000C9451000C9451000C94510045
S11300100C9451000C9451000C9451000C94510018
S11300200C9451000C9446010C9451000C94510012
S11300300C9451000C9451000C9451000C945100F8
S11300400C94D1010C9451000C9451000C94510067
S11300500C9451000C9451000C9451000C945100D8
S11300600C9451000C94510011241FBECFEFD8E022
S1130070DEBFCDBF11E0A0E0B1E0ECE8F4E002C0E7
S113008005900D92A833B107D9F721E0A8E3B1E0B8
S113009001C01D92AD33B207E1F70E94FA000C943F
S11300A044020C940000299A85E08A95F1F7000037
S11300B029980895CF93C82F662311F0289A01C078
S11300C02898549A559A569A579A5F985E985D98CC
S11300D05C98CC230CF45F9AC6FD5E9AC5FD5D9ACC
S11300E0C4FD5C9A0E9453005F985E985D985C988A
S11300F0C3FD5F9AC2FD5E9AC1FD5D9AC0FD5C9A24
S11301000E9453005C9A5D9A5E9A5F9A87EB9BE02B
S11301100197F1F700C00000CF91089560E00E94BC
S11301205A00089561E00E945A000895611104C0C4
S113013080580E948E00089580540E948E00089575
S113014081E00E948E00089561E00E945A000895A3
S1130150CF93DF93EC012196FC018081882329F061
S11301600E94A40089918111FBCFDF91CF91089562
S1130170CF93C82F209A559A219A549A559A569AF1
S1130180579A8FEF99EF0197F1F700C000005D9A3D
S11301905C9A0E9453008FE19EE40197F1F700C03E
S11301A000000E9453008FEF90E00197F1F700C028
S11301B000000E9453008FEF90E00197F1F700C018
S11301C000005C980E9453008FEF90E00197F1F7D4
S11301D000C0000088E20E948E0088E00E948E0029
S11301E00E94A00086E00E948E008C2F0E948E0048
S11301F0CF9108958CE00E94B800E1EBF0E080819B
S113020087608083E0E7F0E080818160808385B54A
S11302108D7F85BD85B5856085BDEEE6F0E0808186
S11302208160808378948CE00E94B80080E40E940E
S11302308E00C0E0D1E000E311E089910E949200B9
S1130240C017D107D1F780E80E948E000E94A00059
S113025060E081E00E94960080E391E00E94A800A3
S113026060E08BE00E94960081E60E94A40061E0B9
S113027080E00E94960080E00E94A40061E08BE090
S11302800E94960083E60E94A400FFCF1F920F9263
S11302900FB60F9211242F933F934F935F936F9355
S11302A07F938F939F93AF93BF93EF93FF93CF93DA
S11302B0DF93CDB7DEB72697DEBFCDBF80E290E2F5
S11302C09A8389839C838B831E821D8280913C0147
S11302D08F5F863018F480933C014AC010923C0131
S11302E080913B018F5F8A3018F480933B011FC0DB
S11302F010923B0180913A018F5F8C3318F4809304
S11303003A0102C010923A0180913A014AE0BE01DA
S11303106D5F7F4F889FC00111240E940F0260E02F
S11303208BE00E949600CE0103960E94A80060E034
S113033086E00E94960080913B01805D0E94A400AB
S113034080913A014AE0BE016F5F7F4F90E00E94C6
S11303500F0260E083E00E94960080913A018A30A7
S113036018F480E30E94A400CE0101960E94A80024
S113037026960FB6F894DEBF0FBECDBFDF91CF91A6
S1130380FF91EF91BF91AF919F918F917F916F9169
S11303905F914F913F912F910F900FBE0F901F903F
S11303A018951F920F920FB60F9211242F933F931B
S11303B04F935F936F937F938F939F93AF93BF9369
S11303C0EF93FF93809139018F5F8A3018F4809303
S11303D0390114C010923901809138018F5F8A303D
S11303E018F48093380102C01092380161E08091C2
S11303F038010E94960081E60E94A400FF91EF91CB
S1130400BF91AF919F918F917F916F915F914F9128
S11304103F912F910F900FBE0F901F901895BB27FF
S11304204A3031F4992322F4BDE2909581959F4F8F
S11304300C941B02BB27FB015527AA27880F991F81
S1130440AA1FA41710F0A41B83955051B9F7A05DFF
S1130450AA3308F0A95DA193009779F7B111B1937C
S11304601192CB010C943402DC01FC01672F7191D1
S11304707723E1F7329704C07C916D937083629186
S10F0480AE17BF07C8F30895F894FFCF2F
S113048C101010101010101018181818181818181C
S113049C1C1C1C1C1C1C1C1C1E1E1E1E1E1E1E1E7C
S11304AC1F1F1F1F1F1F1F1F000000000000000044
S10B04BC30303A30302E3000DC
S9030000FC
