:100000000C9434000C943E000C943E000C943E0082
:100010000C943E000C943E000C943E000C943E0068
:100020000C943E000C943E000C943E000C943E0058
:100030000C943E000C943E000C943E000C943E0048
:100040000C943E000C943E000C943E000C943E0038
:100050000C943E000C943E000C943E000C943E0028
:100060000C943E000C943E0011241FBECFEFD8E04C
:10007000DEBFCDBF0E9472000C94A6000C9400005D
:100080002FEF83EC99E0215080409040E1F700C0D1
:10009000000085B1806285B92FEF83EC99E0215093
:1000A00080409040E1F700C0000085B18F7D85B9A8
:1000B00008952FEF83EC99E0215080409040E1F7C4
:1000C00000C0000085B1806285B92FEF8BE49DE10F
:1000D000215080409040E1F700C0000085B18F7D45
:1000E00085B9089584B1806284B985B18F7D85B961
:1000F0000E9459000E9440000E9440002FEF83ECB4
:1001000099E0215080409040E1F700C000000E943B
:1001100040002FEF83EC99E0215080409040E1F7C0
:1001200000C000000E9440000E9440000E94590050
:100130000E9440000E9440002FEF8BE49DE121507F
:1001400080409040E1F700C00000D2CFF894FFCF8C
:00000001FF
