S00C00006C6564732E7372656370
S11300000C9434000C943E000C943E000C943E007E
S11300100C943E000C943E000C943E000C943E0064
S11300200C943E000C943E000C943E000C943E0054
S11300300C943E000C943E000C943E000C943E0044
S11300400C943E000C943E000C943E000C943E0034
S11300500C943E000C943E000C943E000C943E0024
S11300600C943E000C943E0011241FBECFEFD8E048
S1130070DEBFCDBF0E9440000C9453000C940000DE
S1130080259A2D98389A409852985A9A20E291E0ED
S11300904A99FECF85B1822785B988B1892788B965
S10D00A04A99FECFF5CFF894FFCF84
S9030000FC
